:100000000C945E000C9486000C9486000C94860080
:100010000C9486000C9486000C9486000C94860048
:100020000C9486000C9486000C9486000C94860038
:100030000C9486000C9486000C9486000C94860028
:100040000C9467040C9486000C9435040C940F04F3
:100050000C9486000C9486000C9486000C94860008
:100060000C94B1040C9486000000000024002700CA
:100070002A0000000008000201000003040700003D
:10008000000000000000010204081020408001026E
:1000900004081020010204081020000000002500C0
:1000A00028002B00040404040404040402020202D5
:1000B0000202030303030303D005380911241FBE02
:1000C000CFEFD8E0DEBFCDBF11E0A0E0B1E0E8E1C6
:1000D000F5E102C005900D92AE34B107D9F722E0E8
:1000E000AEE4B1E001C01D92A63EB207E1F710E018
:1000F000CDE5D0E004C02197FE010E945409CC3523
:10010000D107C9F70E9486060C947F0A0C94000060
:100110002091100281E0213208F044C08091EC016E
:100120008111FCCF80910F0292E09093EC0191E05D
:100130009093EB019FEF9093EA011092E9012093D5
:10014000E801AFEEB1E0E8ECF1E090E0291331C056
:100150001092C7019091C701880F892B8093C70126
:100160008091C601813049F51092C6018091C70186
:100170008093BB008091BC0083FDF8CF85EC809319
:10018000BC008091EC018230E1F38091EA018F3F65
:10019000B1F08091EA018032A1F08091EA018033D0
:1001A00091F084E01092EE01109210021092ED0195
:1001B00008953D9131939F5FC9CF85EEE0CF80E0F8
:1001C000F1CF82E0EFCF83E0EDCF0895CF93DF93BF
:1001D000AC01E091BA01F091BB013097F1F0909140
:1001E000C5018091C4019817C0F090E0292F30E03C
:1001F0002617370754F4D901A25BBE4F240F351FD1
:10020000E90128812C939F5FF1CF1092C501609383
:10021000C401CB01DF91CF910994DF91CF91089573
:10022000AF92BF92CF92DF92EF92FF920F931F9304
:10023000CF93DF936C017B018B01040F151FEB0142
:100240005E01AE18BF08C017D10759F06991D601F9
:10025000ED91FC910190F081E02DC6010995892B6B
:1002600079F7C501DF91CF911F910F91FF90EF902A
:10027000DF90CF90BF90AF900895FC01538D448DD7
:10028000252F30E0842F90E0821B930B541710F041
:10029000CF96089501970895FC01918D828D98174E
:1002A00061F0A28DAE0FBF2FB11D5D968C91928D26
:1002B0009F5F9F73928F90E008958FEF9FEF089557
:1002C000FC01918D828D981731F0828DE80FF11D20
:1002D000858D90E008958FEF9FEF0895FC01918D3B
:1002E000228D892F90E0805C9F4F821B91098F7334
:1002F0009927089581E192E00E946E0121E0892B07
:1003000009F420E0822F089580E090E0892B29F005
:100310000E947A0181110C9400000895FC01A48DC3
:10032000A80FB92FB11DA35ABF4F2C91848D90E017
:1003300001968F739927848FA689B7892C93A089FA
:10034000B1898C91837080648C93938D848D981384
:1003500006C00288F389E02D80818F7D8083089517
:10036000EF92FF920F931F93CF93DF93EC0181E005
:10037000888F9B8D8C8D98131AC0E889F9898081AC
:1003800085FF15C09FB7F894EE89FF896083E889DF
:10039000F98980818370806480839FBF81E090E0D1
:1003A000DF91CF911F910F91FF90EF900895F62E5E
:1003B0000B8D10E00F5F1F4F0F731127E02E8C8DF8
:1003C0008E110CC00FB607FCFACFE889F98980813D
:1003D00085FFF5CFCE010E948E01F1CFEB8DEC0FA2
:1003E000FD2FF11DE35AFF4FF0829FB7F8940B8F5A
:1003F000EA89FB8980818062CFCFCF93DF93EC01C4
:10040000888D8823B9F0AA89BB89E889F9898C91FC
:1004100085FD03C0808186FD0DC00FB607FCF7CFB8
:100420008C9185FFF2CF808185FFEDCFCE010E94B8
:100430008E01E9CFDF91CF91089590E0FC01EE5855
:10044000FF4F2491FC01EA57FF4F3491FC01EC551A
:10045000FF4FE491EE23C9F0222339F0233001F15C
:10046000A8F4213019F1223029F1F0E0EE0FFF1F3E
:10047000E656FF4FA591B4918FB7F894EC916111B6
:1004800026C030953E233C938FBF08952730A9F0B6
:100490002830C9F0243049F7809180008F7D03C057
:1004A000809180008F7780938000DFCF84B58F7735
:1004B00084BDDBCF84B58F7DFBCF8091B0008F777B
:1004C0008093B000D2CF8091B0008F7DF9CF3E2BCA
:1004D000DACF1092C5011092C4011092EE01109271
:1004E00010021092EC0181E08093EB011092C601A2
:1004F00061E082E10E941D0261E083E10E941D0231
:10050000E9EBF0E080818E7F808380818D7F808326
:1005100088E48093B80085E48093BC0085EE90E089
:100520009093C3018093C20186EE90E09093C10145
:100530008093C0010895CF93DF9390E0FC01EA57C8
:10054000FF4F24918C559F4FFC0184918823D1F05B
:1005500090E0880F991FFC01E859FF4FA591B491D5
:10056000FC01E656FF4FC591D49161110EC09FB7B3
:10057000F8948C91E22FE0958E238C932881E223CE
:10058000E8839FBFDF91CF9108958FB7F894EC91E6
:10059000E22BEC938FBFF6CF3FB7F8948091B60172
:1005A0009091B701A091B801B091B90126B5A89B6F
:1005B00005C02F3F19F00196A11DB11D3FBFBA2FF5
:1005C000A92F982F8827BC01CD01620F711D811DB5
:1005D000911D42E0660F771F881F991F4A95D1F73A
:1005E000089585ED8093BC008091BC0084FDFCCF14
:1005F0001092EC01089520918E01260F3327331FAE
:1006000021323105ECF42091EC01FC0190E080E016
:10061000243069F082E00895A0918E012191AC010F
:1006200042595E4FA40FB52FB11D2C93019686172A
:1006300098F380918E01680F60938E0180E0089599
:1006400081E008950895E091C5018091C401E81703
:1006500030F4F0E0E25BFE4F808190E008958FEF90
:100660009FEF08959091C5018091C4012FEF3FEF56
:10067000981748F4E92FF0E0E25BFE4F208130E06C
:100680009F5F9093C501C90108958091C401909125
:10069000C501891B990B0895CF92DF92EF92FF92CB
:1006A0000F931F93CF93DF937C01CB018A0120919D
:1006B000ED01222389F0EB016B01C40ED51ECC1590
:1006C000DD0569F06991D701ED91FC910190F08110
:1006D000E02DC7010995F3CF642F0E94FB02C801EA
:1006E000DF91CF911F910F91FF90EF90DF90CF900E
:1006F0000895CF93DF931F92CDB7DEB76983209122
:10070000ED012223F9F020911002203258F021E06F
:1007100030E0FC013383228390E080E00F90DF9192
:10072000CF9108958091EE01E82FF0E0E151FE4F66
:10073000998190838F5F8093EE018093100281E016
:1007400090E0ECCF61E0CE0101960E94FB02F7CF72
:100750009091E00221E02093ED0190930F0210921E
:10076000EE0110921002682F606E8EEA92E00E94F5
:1007700079030C94880090E080E00895AF92BF92D6
:10078000CF92DF92EF92FF920F931F93CF93DF935D
:10079000CDB7DEB7CDB6DEB6E090C4012091C5017D
:1007A000E21669F1ADB6BEB62DB73EB7281B390BC0
:1007B0000FB6F8943EBF0FBE2DBF0DB71EB70F5F2B
:1007C0001F4FF12C8091C501E81651F08EEA92E09E
:1007D0000E943203F801EF0DF11D8083F394F2CFF4
:1007E000F80180818093BE0181818093BD01828167
:1007F0008093BC010FB6F894BEBE0FBEADBE0FB65F
:10080000F894DEBE0FBECDBEDF91CF911F910F9148
:10081000FF90EF90DF90CF90BF90AF9008951F9220
:100820000F920FB60F9211242F933F934F935F9324
:100830006F937F938F939F93AF93BF93EF93FF93A8
:1008400081E192E00E948E01FF91EF91BF91AF9103
:100850009F918F917F916F915F914F913F912F91D8
:100860000F900FBE0F901F9018951F920F920FB60A
:100870000F9211242F938F939F93EF93FF93E09107
:100880002102F09122028081E0912702F09128025A
:1008900082FD1BC0908180912A028F5F8F7320910F
:1008A0002B02821741F0E0912A02F0E0EF5EFD4F4B
:1008B000958F80932A02FF91EF919F918F912F91B5
:1008C0000F900FBE0F901F9018958081F4CF1F924C
:1008D0000F920FB60F9211242F933F938F939F93F4
:1008E000AF93BF938091B2019091B301A091B401F5
:1008F000B091B5013091B10123E0230F2D3758F5A8
:100900000196A11DB11D2093B1018093B201909376
:10091000B301A093B401B093B5018091B601909159
:10092000B701A091B801B091B9010196A11DB11D07
:100930008093B6019093B701A093B801B093B90129
:10094000BF91AF919F918F913F912F910F900FBECB
:100950000F901F90189526E8230F0296A11DB11D38
:10096000D2CF1F920F920FB60F9211242F933F9365
:100970004F935F936F937F938F939F93AF93BF93A7
:10098000EF93FF938091B900887F803609F44AC0C5
:10099000F0F5883209F4A7C018F5803109F49BC03E
:1009A000B8F4882309F4F9C0883009F494C0FF91A1
:1009B000EF91BF91AF919F918F917F916F915F91D7
:1009C0004F913F912F910F900FBE0F901F90189550
:1009D000883109F488C0803251F78093EA0114C04D
:1009E000803409F49DC040F48033B9F38833F9F6BC
:1009F0008093EA0185ECB0C0803509F485C0883564
:100A000009F496C0883499F60E94F102D0CF883953
:100A100009F48CC038F5883729F050F4883611F085
:100A2000803729F683E08093EC011092B00157C023
:100A3000883809F47BC0803919F0803809F0B7CFC5
:100A40008091B001803208F071C0E091B00181E086
:100A50008E0F8093B0018091BB00F0E0E057FE4F15
:100A600080833DC0803B39F0E0F4803A09F479C0DE
:100A7000883A09F09CCF84E08093EC0110928F01BA
:100A800010928E01E091C201F091C301099580910D
:100A90008E0181110FC081E080938E0110926E0152
:100AA00009C0803C09F4A6CF883C09F4A3CF883B59
:100AB00009F07DCFE0918F0181E08E0F80938F014F
:100AC000F0E0E259FE4F80818093BB0090918F014E
:100AD00080918E0129C08091C7018093BB0085EC75
:100AE0008093BC0064CF9091E9018091E801981750
:100AF00058F5E091E90181E08E0F8093E901F0E083
:100B0000E853FE4F8081E9CFE091E90181E08E0F4B
:100B10008093E9018091BB00F0E0E853FE4F8083B1
:100B20009091E9018091E8019817C8F285E8D8CF43
:100B3000E091E90181E08E0F8093E9018091BB0093
:100B4000F0E0E853FE4F80838091EB0181115CCF90
:100B500081E08093C60184EA8093BC001092EC018E
:100B600026CF85EC8093BC001092EC018091B001FF
:100B7000803230F4E091B001F0E0E057FE4F108297
:100B80006091B00170E0E091C001F091C10180E995
:100B900091E009951092B0010ACF1092EA0134CF8A
:100BA000109214021092130288EE93E0A0E0B0E0DD
:100BB0008093150290931602A0931702B093180227
:100BC0002BE131E0309312022093110225EC30E04A
:100BD00030931E0220931D0224EC30E0309320025B
:100BE00020931F0220EC30E0309322022093210258
:100BF00021EC30E0309324022093230222EC30E0F9
:100C0000309326022093250226EC30E03093280210
:100C10002093270210922A0210922B0210922C028B
:100C200010922D021092B1021092B0028093B20283
:100C30009093B302A093B402B093B5028DE291E019
:100C40009093AF028093AE021092E1021092BB0229
:100C50001092C2021092C9021092CA021092CB02E4
:100C60001092CC0281E08093C8028093C50210925A
:100C7000C60292E09093C7028093BA028CE090E0A3
:100C80009093BF028093BE020E945A099093C402BF
:100C90008093C302009789F12CE0FC0111922A9500
:100CA000E9F784E090E09093BD028093BC0287E076
:100CB00090E09093C1028093C0028091BB02882390
:100CC00041F061E087E00E949B0260E087E00E94C3
:100CD0001D02EBEAF0E0E491F0E0EE0FFF1FE656B4
:100CE000FF4F859194919093CE028093CD02EDE8D1
:100CF000F0E0E491E093CF0208951092BF021092C9
:100D0000BE021092BD021092BC02D1CFCF93DF93EE
:100D1000CDB7DEB729970FB6F894DEBF0FBECDBFB3
:100D2000789484B5826084BD84B5816084BD85B5C6
:100D3000826085BD85B5816085BD80916E008160D2
:100D400080936E0010928100809181008260809378
:100D5000810080918100816080938100809180007A
:100D60008160809380008091B10084608093B100A5
:100D70008091B00081608093B00080917A0084609F
:100D800080937A0080917A00826080937A008091CB
:100D90007A00816080937A0080917A0080688093E5
:100DA0007A001092C100E0912102F091220282E0CB
:100DB0008083E0911D02F0911E021082E0911F02DB
:100DC000F091200280E1808310922902E0912502B7
:100DD000F091260286E08083E0912302F0912402C4
:100DE000808180618083E0912302F09124028081E0
:100DF00088608083E0912302F091240280818068E2
:100E00008083E0912302F091240280818F7D808392
:100E100061E08DE00E949B020E94690286E280935D
:100E2000BA008EEB93E09093BB018093BA0180E708
:100E30008093E0020E9469028091E00211E0109329
:100E4000ED0180930F021092EE011092100261E208
:100E50008EEA92E00E9479030E9488008091E0026D
:100E60001093ED0180930F021092EE011092100288
:100E700061E88EEA92E00E9479030E9488008FE088
:100E80000E94A80388E00E94A8038091C00290916C
:100E9000C10297FD08C061E00E949B0260E0809162
:100EA000C0020E941D0281E08093BB024091BC02FF
:100EB0005091BD024115510509F44AC04430510515
:100EC00010F044E050E070E060E0B0E0A0E030E01E
:100ED00020E005E4FAEFFF2E8091BC029091BD0264
:100EE0002817390768F58091C20215E4EAEFEE2E63
:100EF000882341F08F9DF0011124EF2E809FC001C7
:100F00001124192FE091C8028091C3029091C4026C
:100F1000F091C502EF1362C18A0F9B1FE091C502D9
:100F2000E80FF92FF11DE082E091C602E80FF92FDA
:100F3000F11D1083E091C702E80FF92FF11D108217
:100F40002F5F3F4F13966C5F7F4F4217530721F679
:100F50008091C3029091C402892B09F467C00E945A
:100F6000CC020091C9021091CA022091CB023091AB
:100F7000CC02601B710B820B930B6C3271408105AC
:100F8000910568F3F8948091BE029091BF029A8314
:100F90008983E091C302F091C402DF011196808140
:100FA00089879091BA02E091CD02F091CE028091B2
:100FB000CF02992309F419C19081982B98879081C9
:100FC000809589238F838F818C8388E08B835885DC
:100FD0006F8149853B812C8189819A81508347FDAE
:100FE000252F3A952083262F39F0441F00C000009A
:100FF0006083000000C0F2CF38E04D9160830000B4
:10100000019761F7F093CE02E093CD0249873B83CD
:101010002C839A83898378940E94CC026093C902BE
:101020007093CA028093CB029093CC024EE050E0C2
:101030006BE371E081E192E00E94100142E050E038
:101040006AE471E081E192E00E9410011AE020E080
:10105000822E20E0922E01E036E0A32EB12C80916A
:10106000BE015090BD012090BC019091BF01482F5E
:10107000450D5527551F9A01220D311D9217130654
:1010800009F47CC08D3018F08C508093BE013090F4
:10109000BE01832D612F0E9448090E9448099111C9
:1010A000DDC01092D1021092D002832D612F0E94D8
:1010B0004809E92FF0E0E95FFE4F808190E09093CE
:1010C000D3028093D20240900001442009F4CBC0A7
:1010D00082E090E09093D5028093D402852D612F19
:1010E0000E944809E92F0E944809A92FB0E0A95F92
:1010F000BE4F8C9190E09093D7028093D602F0E09F
:10110000E95FFE4F808190E09093D9028093D802EE
:101110008091E0020093ED0180930F021092EE01A6
:101120001092100260E08EEA92E00E94790390ED46
:10113000692E92E0792EF3016081F2E06F0E711C4E
:101140008EEA92E00E947903F301329761818EEA80
:1011500092E00E94790340EE52E04615570559F798
:101160000E948800642D8DE00E941D0251E04526FA
:1011700040920001520C350C3092BF010E94CC020B
:101180006B017C0182E3482E512C612C712C0E9452
:10119000CC026C197D098E099F09683E7340810558
:1011A0009105A8F381E0481A51086108710898EE8A
:1011B000C90E93E0D91EE11CF11C411451046104D5
:1011C000710429F78114910409F449CF0E947A012E
:1011D000882309F444CF0E94000041CF860F971F57
:1011E000E80FF92FF11D108299CE9081982B9887E6
:1011F0009081809589238F838F818E8388E08D8372
:1012000058856F8149853D812E8189819A815083DE
:1012100047FD252F00C000C0208300C000C000C0D3
:1012200000C000C060830000262F3A9541F0441FA3
:10123000000000C000C000C000C000C0E8CF38E01F
:101240004D9100C0608300C0019709F7F093CE0272
:10125000E093CD0249873D832E83DBCEB092D1024D
:10126000A092D00222CF1092D5021092D40236CF93
:101270008091C3029091C4020E94F6098091C0023D
:101280009091C10297FD03C060E00C949B02089509
:10129000991B79E004C0991F961708F0961B881FC8
:1012A0007A95C9F780950895EE0FFF1F0590F49188
:1012B000E02D09940F931F93CF93DF938230910514
:1012C00010F482E090E0E091E402F091E50230E079
:1012D00020E0B0E0A0E0309799F42115310509F441
:1012E0004AC0281B390B24303105D8F58A819B81EF
:1012F0006115710589F1FB0193838283FE0111C0A1
:10130000408151810281138148175907E0F0481745
:10131000590799F4109761F012960C93129713964F
:101320001C933296CF01DF91CF911F910F910895B9
:101330000093E4021093E502F4CF2115310551F03A
:101340004217530738F0A901DB019A01BD01DF0103
:10135000F801C1CFEF01F9CF9093E5028093E40249
:10136000CDCFFE01E20FF31F8193919322503109FB
:1013700039832883D7CF2091E2023091E302232BD7
:1013800041F420910301309104013093E302209352
:10139000E20220910101309102012115310541F451
:1013A0002DB73EB74091050150910601241B350B26
:1013B000E091E202F091E302E217F307A0F42E1BA2
:1013C0003F0B2817390778F0AC014E5F5F4F2417A9
:1013D000350748F04E0F5F1F5093E3024093E2023F
:1013E000819391939FCFF0E0E0E09CCFCF93DF9388
:1013F0000097E9F0FC01329713821282A091E40277
:10140000B091E502ED0130E020E01097A1F42081D9
:101410003181820F931F2091E2023091E30228175D
:10142000390709F061C0F093E302E093E202DF9133
:10143000CF910895EA01CE17DF07E8F54A815B8175
:101440009E0141155105B1F7E901FB83EA834991FA
:101450005991C40FD51FEC17FD0761F4808191816C
:101460000296840F951FE901998388838281938175
:101470009B838A83F0E0E0E012968D919C91139714
:101480000097B9F52D913C911197CD010296820FED
:10149000931F2091E2023091E3022817390739F6B1
:1014A000309751F51092E5021092E402B093E302F6
:1014B000A093E202BCCFD383C28340815181840FC9
:1014C000951FC817D90761F44E5F5F4F88819981D6
:1014D000480F591F518340838A819B819383828364
:1014E0002115310509F0B0CFF093E502E093E40255
:1014F0009ECFFD01DC01C0CF13821282D7CF10E056
:10150000CDE5D0E004C0FE010E9454092196CE35FD
:08151000D107C9F7F894FFCFE1
:10151800010000E60280003F065B4F666D7D077F95
:101528006F777C395E797100000000B00110013DD1
:1015380001FD016E014C0160010000000079034CBF
:1015480003BB032203450332032303417264756915
:0E1558006E6F20526561647921000D0A00005B
:00000001FF
